:100000000C944D000C946C000C946C000C946C00DF
:100010000C946C000C946C000C946C000C946C00B0
:100020000C946C000C946C000C946C000C946C00A0
:100030000C946C000C94AA000C946C000C946C0052
:100040000C946C000C946C000C946C000C946C0080
:100050000C946C000C946C000C946C000C946C0070
:100060000C946C000C946C000C946C000C946C0060
:100070000C946C000C946C000C946C000C946C0050
:100080000C946C000C946C000C946C0016011D0117
:100090002D013D014D015B01690111241FBECFEF10
:1000A000D0E4DEBFCDBF11E0A0E0B1E0E8E9F3E0CD
:1000B00000E00BBF02C007900D92A231B107D9F743
:1000C00011E0A2E1B1E001C01D92AA31B107E1F750
:1000D0000E94A2010C94CA010C940000CF93C82F77
:1000E0008A3019F48DE00E946E009091C00095FF57
:1000F000FCCFC093C60080E090E0CF9108958BE0E4
:10010000809381008DE790E0909389008093880030
:1001100082E080936F00109285001092840080919D
:10012000000190910101A0910201B091030180931F
:10013000130190931401A0931501B09316018FB78A
:1001400080688FBF089510928100089581E08093A8
:10015000170108951F920F920FB60F9211240BB63C
:100160000F922F933F934F935F936F937F938F9350
:100170009F93AF93BF93EF93FF938091130190915F
:100180001401A0911501B09116010197A109B109BF
:100190008093130190931401A0931501B09316015D
:1001A000892B8A2B8B2B91F40E94A6008091000151
:1001B00090910101A0910201B0910301809313017C
:1001C00090931401A0931501B0931601FF91EF9144
:1001D000BF91AF919F918F917F916F915F914F915F
:1001E0003F912F910F900BBE0F900FBE0F901F905D
:1001F0001895609300017093010180930201909320
:10020000030160931301709314018093150190937F
:1002100016010895E0911801F0911901E730F105F8
:1002200008F065C0EA5BFF4F0C94C10181E090E0EB
:1002300090931901809318015EC0009907C084E073
:1002400090E0909319018093180155C082E090E0EE
:1002500090931901809318014EC0009907C085E062
:1002600090E0909319018093180145C083E090E0DD
:1002700090931901809318013EC0009907C086E051
:1002800090E0909319018093180135C081E090E0CF
:1002900090931901809318012EC0009905C0109207
:1002A00019011092180127C084E090E09093190181
:1002B0008093180120C0009905C010921901109276
:1002C000180119C085E090E09093190180931801FE
:1002D00012C0009905C010921901109218010BC0AC
:1002E00086E090E0909319018093180104C0109269
:1002F0001901109218018091180190911901833011
:100300009105A1F030F48130910551F0029759F038
:1003100008958530910581F060F0069781F0089589
:1003200081E085B9089582E085B9089584E085B9B2
:10033000089581E085B9089582E085B9089584E043
:1003400085B9089511B88FEF82B984B915B862E301
:1003500070E080E090E00E94F9000E947F0080B190
:1003600080958170809312011092190110921801EA
:100370000E940A01809117018823E1F3109217016E
:10038000F7CFEE0FFF1F0024001C0BBE0790F69165
:08039000E02D0994F894FFCF61
:100398000100000000000002000000006E000000E4
:0203A800000053
:00000001FF
