:100000000C948B000C94A2000C94A2000C94A200FF
:100010000C94A2000C94A2000C94A2000C94A200D8
:100020000C94A2000C94A2000C94A2000C94A200C8
:100030000C94A2000C94A2000C94A2000C94A200B8
:100040000C94A2000C94A2000C94A2000C94A200A8
:100050000C94A2000C94A2000C94A2000C94A20098
:100060000C94A2000C94A2000C94A2000C94A20088
:100070000C94A2000C94A2000C94A2000C94A20078
:100080000C94A2000C94A2000C94A2007C01AE017E
:10009000AE01AE01AE01AE01AE01AE01AE01AE01E8
:1000A000AE01AE01AE01AE01AE01AE01AE01AE01D8
:1000B000AE01AE01AE01AE01AE01AE01AE01AE01C8
:1000C000AE01AE01AE01AE01AE01AE01AE01AE01B8
:1000D000AE01AB01AE01AE01AE01AE01AE01AE01AB
:1000E000A601AE01AE01AE01AE01AE01A9017F01D4
:1000F0008201850188018B018E0191019401970194
:10010000AE01AE01AE01AE01AE01AE01AE019A018B
:100110009D01A001A30111241FBECFEFD0E4DEBFDB
:10012000CDBF11E0A0E0B1E0E8E7F3E000E00BBFF5
:1001300002C007900D92AE30B107D9F70E946A0154
:100140000C94BA010C940000CF93C82F8A3019F494
:100150008DE00E94A4009091C00095FFFCCFC09359
:10016000C60080E090E0CF910895442349F021E05B
:1001700030E002C0220F331F6A95E2F7822B089508
:1001800021E030E002C0220F331F6A95E2F720958C
:100190008223089521E030E002C0220F331F6A95C8
:1001A000E2F7822308958FEE88B9000086B160E0FF
:1001B0000E94CA00882309F46DC086B161E00E94E4
:1001C000CA00882309F468C086B162E00E94CA00B0
:1001D000882309F463C086B163E00E94CA008823C3
:1001E00009F45EC08FED88B9000086B160E00E941E
:1001F000CA00882309F456C086B161E00E94CA0093
:10020000882309F451C086B162E00E94CA008823A5
:1002100009F44CC086B163E00E94CA00882309F447
:1002200047C08FEB88B9000086B160E00E94CA0029
:10023000882309F43FC086B161E00E94CA00882388
:10024000D9F186B162E00E94CA008823B9F186B173
:1002500063E00E94CA00882399F18FE788B9000003
:1002600086B160E00E94CA00882361F186B161E036
:100270000E94CA00882341F186B162E00E94CA0050
:10028000882321F186B163E00E94CA00811120C059
:1002900084E4089581E3089584E3089587E308954D
:1002A0008AE2089582E3089585E3089588E3089536
:1002B00080E3089583E3089586E3089589E308952C
:1002C00083E2089581E4089582E4089583E4089523
:1002D00080E008958FEF84B915B880EF87B98FE07B
:1002E00088B90E94D30090E085349105B8F5FC01EF
:1002F000EA5BFF4F0C94B1018FE185B9F2CF81E049
:1003000085B9EFCF82E085B9ECCF83E085B9E9CF3D
:1003100084E085B9E6CF85E085B9E3CF86E085B98D
:10032000E0CF87E085B9DDCF88E085B9DACF89E015
:1003300085B9D7CF8AE085B9D4CF8BE085B9D1CF45
:100340008CE085B9CECF8DE085B9CBCF8EE085B975
:10035000C8CF15B8C6CF8FE085B9C3CF8BE185B9BB
:10036000C0CFEE0FFF1F0024001C0BBE0790F691BC
:08037000E02D0994F894FFCF81
:0E0378000000000200000000A40000000000D1
:00000001FF
