:100000000C9446000C9465000C9465000C946500FB
:100010000C9465000C9465000C9465000C946500CC
:100020000C9465000C9465000C9465000C946500BC
:100030000C9465000C94F1000C9465000C94650020
:100040000C9465000C9465000C9465000C9465009C
:100050000C9465000C9465000C9465000C9465008C
:100060000C9465000C9465000C9465000C9465007C
:100070000C9465000C9465000C9465000C9465006C
:100080000C9465000C9465000C94650011241FBE4F
:10009000CFEFD0E4DEBFCDBF11E0A0E0B1E0E8E6F5
:1000A000F5E000E00BBF02C007900D92AC33B10742
:1000B000D9F711E0ACE3B1E001C01D92AA35B10758
:1000C000E1F70E94EF010C94B2020C940000813021
:1000D000910531F08230910569F0892B31F408C027
:1000E0001092590182E090E005C080E090E002C0EB
:1000F00081E090E08230910551F42091590125333F
:1001000018F01092590108952F5F20935901089516
:100110000F931F93CF93DF93B62FA72FF82FE92FBD
:10012000022F132FD42FC52F04C0062F172FD82F1F
:10013000C92F6B2F7A2F8F2F9E2F202F312F4D2FCE
:100140005C2F0E949002B02FA12FFD2FEC2F611584
:1001500071058105910549F7602F712F8D2F9C2F17
:10016000DF91CF911F910F910895609300017093DB
:100170000101809302019093030160933C0170930D
:100180003D0180933E0190933F0108958BE0809361
:1001900081008DE790E0909389008093880082E051
:1001A00080936F001092850010928400809100016E
:1001B00090910101A0910201B091030180933C0153
:1001C00090933D01A0933E01B0933F018FB78068AB
:1001D0008FBF089510928100089581E080934001BF
:1001E00008951F920F920FB60F9211240BB60F9223
:1001F0002F933F934F935F936F937F938F939F932F
:10020000AF93BF93EF93FF9380913C0190913D0199
:10021000A0913E01B0913F010197A109B1098093DE
:100220003C0190933D01A0933E01B0933F01892B87
:100230008A2B8B2B91F40E94ED008091000190910C
:100240000101A0910201B091030180933C019093C0
:100250003D01A0933E01B0933F01FF91EF91BF910B
:10026000AF919F918F917F916F915F914F913F914E
:100270002F910F900BBE0F900FBE0F901F901895EF
:1002800040E050E00CC000002F5F3F4F02C020E074
:1002900030E0273063E03607B4F34F5F5F4F481715
:1002A0005907ACF308955E9888B95F9A00005F988B
:1002B00082E090E00E944001089581E00E94530195
:1002C0000895813120F481580E9453010895815589
:1002D0000E945301089584E690E00E94400188E363
:1002E0000E94530186E00E9453018FE00E94530157
:1002F00081E00E9453018AE090E00E94400108954D
:100300005E9A88B95F9A00005F9881E090E00E9451
:1003100040010895EF92FF920F931F93CF93DF93C5
:10032000182FEB010E945D010EC001E0010F812F2B
:100330000E9461017E018FEFE81AF80A88810E940D
:100340008001102FE70188818111EFCFDF91CF91DC
:100350001F910F91FF90EF900895CF93DF93EC01E1
:100360008130910531F082309105A9F0009771F448
:1003700010C081E08093580180915901809357010A
:1003800081E00E946101C2E0D0E005C0C0E0D0E0A1
:1003900002C0C1E0D0E0C230D105E9F4E0915701DC
:1003A000E53320F080E20E94800106C0F0E0EA5FC1
:1003B000FE4F80810E94800180915801803148F475
:1003C0008F5F80935801809157018F5F8093570111
:1003D00002C0C1E0D0E0CE01DF91CF910895CF936C
:1003E000DF9300D000D0CDB7DEB78FEF87B918B854
:1003F0008AB91BB825E030E040E050E06CE271E0E3
:1004000080E090E00E9488004B015C016CE271E0AA
:1004100080E090E0A50194010E94900269017A01B8
:1004200065E070E080E090E0A50194010E949002F8
:10043000ACE4B1E0BA83A983E1E4F1E0FC83EB83AF
:100440001C921196CD92DD92ED92FC921497159626
:10045000CD92DD92ED92FC92189787E690E01A9685
:100460009C938E9319971082218332834383548304
:1004700025833683478350878DEA91E09287818771
:100480000E946B010E945D01C501B4010E94B5008C
:100490000E94C600E12CF12C38C0F701EE0FFF1FBF
:1004A000EC0FFD1F01811281D80115964D915D91D0
:1004B0006D917C91189711968D919D910D90BC91A5
:1004C000A02D481759076A077B0781F4D8011996B0
:1004D000ED91FC911A978C91992787FD909509953C
:1004E000F80180831582168217821086F8018581B3
:1004F0009681A781B0850196A11DB11D8583968344
:10050000A783B087FFEFEF1AFF0A82E0E816F10435
:1005100020F2809140018823E1F310924001BACF8C
:10052000A1E21A2EAA1BBB1BFD010DC0AA1FBB1FF7
:10053000EE1FFF1FA217B307E407F50720F0A21B69
:10054000B30BE40BF50B661F771F881F991F1A94D6
:1005500069F760957095809590959B01AC01BD0100
:08056000CF010895F894FFCFCC
:10056800010000003500202020202020202020200D
:10057800202020202020435331323042206973202C
:100588004C6567656E642E2E2E207761697420662F
:0C0598006F722069742044415259210008
:00000001FF
