:100000000C9446000C9465000C9465000C946500FB
:100010000C9465000C9465000C9465000C946500CC
:100020000C9465000C9465000C9465000C946500BC
:100030000C9465000C94A3000C9465000C9465006E
:100040000C9465000C9465000C9465000C9465009C
:100050000C9465000C9465000C9465000C9465008C
:100060000C9465000C9465000C9465000C9465007C
:100070000C9465000C9465000C9465000C9465006C
:100080000C9465000C9465000C94650011241FBE4F
:10009000CFEFD0E4DEBFCDBF11E0A0E0B1E0E6EBF2
:1000A000F2E000E00BBF02C007900D92A631B1074D
:1000B000D9F711E0A6E1B1E001C01D92AC31B10762
:1000C000E1F70E9433010C9459010C940000CF9386
:1000D000C82F8A3019F48DE00E9467009091C0000B
:1000E00095FFFCCFC093C60080E090E0CF910895CB
:1000F0008BE0809381008DE790E09093890080935E
:10010000880082E080936F00109285001092840036
:100110008091040190910501A0910601B091070121
:100120008093170190931801A0931901B0931A01BD
:100130008FB780688FBF089510928100089581E085
:1001400080931B0108951F920F920FB60F921124F6
:100150000BB60F922F933F934F935F936F937F93C1
:100160008F939F93AF93BF93EF93FF93809117016A
:1001700090911801A0911901B0911A010197A1095C
:10018000B1098093170190931801A0931901B093BE
:100190001A01892B8A2B8B2B91F40E949F0080914E
:1001A000040190910501A0910601B091070180938F
:1001B000170190931801A0931901B0931A01FF91B0
:1001C000EF91BF91AF919F918F917F916F915F91CF
:1001D0004F913F912F910F900BBE0F900FBE0F903C
:1001E0001F90189560930401709305018093060198
:1001F0009093070160931701709318018093190180
:1002000090931A01089518990AC0199B08C080910B
:100210000301803C78F4880F809303010895189BB4
:1002200009C0199907C080910301843018F08695A0
:1002300080930301089518990AC0199B08C0809102
:100240000101803C78F4880F809301010895189B88
:1002500009C0199907C080910101843018F0869572
:1002600080930101089511B812B88FEF84B985B950
:1002700087B988B964E670E080E090E00E94F200FF
:100280000E94780080910301809588B980910201D5
:1002900082B980910101809588B98091000182B96D
:1002A0000E94030180911B018823E1F310921B013E
:0602B000E9CFF894FFCF36
:1002B6008018011801000000000000020000000084
:0602C600670000000000CB
:00000001FF
